:030000000203ED0B
:10000300C0E0C0D0C000C001C002E4F538F539F546
:100013003AF53BF53C7A20E533A2E779047830E6FC
:1000230033F608D9FA79057838E636D4F608D9F9DB
:10003300DAE5D002D001D000D0D0D0E022C0E0C0B9
:10004300D0C000C001C002E4F538F539F53AF53BFC
:10005300F53C7A20E533A2E779047830E633F608F5
:10006300D9FA79057838C0D0E6243320E70224D0C2
:1000730020E30224FDD0D033F608D9EADAD6D00241
:10008300D001D000D0D0D0E022C0E0C0D0C000C0AA
:1000930001C0027A207905C3783CE613C0D030E76B
:1000A3000224D030E30224FDF618D0D0D9EC790431
:1000B3007833E613F618D9FADADBD002D001D00090
:1000C300D0D0D0E022C0E0C0D0E5302534F530E513
:1000D300313535F531E5323536F532E5333537F53A
:1000E30033D0D0D0E022C0E0C0D0C3E5309534F5A2
:1000F30030E5319535F531E5329536F532E5339511
:1001030037F533D0D0D0E022C0E0C0D0C3E530957E
:1001130034E5319535E5329536E53395379200D0A0
:10012300D0D0E022C0E0C0D0C3E5349530E53595AA
:1001330031E5369532E53795339200D0D0D0E022C1
:10014300C0E0C0D0C200C3E53495307014E53595E6
:1001530031700EE53695327008E53795337002D26B
:1001630000D0D0D0E0221201432000030201272255
:1001730012014320000302010B22C0E0C0F0C0D0F3
:10018300C000C001C002C003E5308534F0A4F8A963
:10019300F0E5318534F0A429F9E435F0FAE530854A
:1001A30035F0A429F9E5F03AFAE433FBE532853476
:1001B300F0A42AFAE5F03BFBE5318535F0A42AFAF1
:1001C300E5F03BFBE5308536F0A42AFAE5F03BFB8E
:1001D300E5338534F0A42BFBE5328535F0A42BFB06
:1001E300E5318536F0A42BFBE5308537F0A42BFBF6
:1001F3008B338A3289318830D003D002D001D000CA
:10020300D0D0D0F0D0E022C0E0C0D0C000C001C048
:1002130002C003C0047C20E4F8F9FAFBC3E53033E1
:10022300F530E53133F531E53233F532E53333F586
:1002330033E833F8E933F9EA33FAEB33FBC3E895F0
:1002430034E99535EA9536EB95374013E89534F85C
:10025300E99535F9EA9536FAEB9537FB433001DC3E
:10026300BBD004D003D002D001D000D0D0D0E02244
:10027300C00078B10000D8FCD00022C000C00179D2
:100283002D78A6D8FED9FADAF6D001D00022D2967C
:10029300120273C29622A2E79286A2E69287A2E591
:1002A3009290A2E49291120291120273A2E39286B7
:1002B300A2E29287A2E19290A2E09291120291228D
:1002C300D2A0020299C2A0020299C296C2977433C5
:1002D3001202C874331202C874321202C87428128C
:1002E30002C8740C1202C874011202C8C0027A0256
:1002F30012027ED00222E49360061202C3A380F6A8
:1003030022444044800202C8C0E0E8C4540F443091
:0E0313001202C3E8540F44301202C3D0E0229D
:10032100436170286E4629005265286F686D290067
:100331007AC679F578A7D8FED9FADAF6227530624D
:10034100753107753200753300858A34858C3575B2
:1003510036007537001200E975340A7535007536B7
:100361000075370012017D85308A85318C22753008
:10037100207531BF753202753300858A34858C351D
:1003810075360075370012020A753401753500752E
:1003910036007537001200E985308A85318C22E4F8
:1003A100780079007A007B10E58A33F58AE58C3391
:1003B100F58CE838D4F8E939D4F9EA3AD4FADBE82B
:1003C10022EA540F44301202C3E9C4540F443012DC
:1003D10002C3E9540F44301202C3E8C4540F44303D
:1003E1001202C3E8540F44301202C32275817F7593
:1003F10097DE7597AD75E10075E21075E34075A95B
:100401000075A900E5A930E7FBC28CE58954F044E9
:1004110005F5891202CDC0E0740114120306D0E083
:10042100C083C082C0E09003211202F9D0E0D082E3
:10043100D083C0E0740114120304D0E0C083C082F1
:10044100C0E09003291202F9D0E0D082D083C28C9F
:10045100758A00758C00D28C120331C28CC0E07495
:100461000A14120306D0E012036F1203A01203C292
:10047100C28C758A00758C00D28C120331C28CC07B
:10048100E0740A14120304D0E012033E1203A01216
:0504910003C202044F4C
:00000001FF
